:100000000C9463000C948B000C948B000C943803BC
:100010000C9438030C9438030C948B000C948B00D4
:100020000C948B000C948B000C948B000C948B0024
:100030000C948B000C948B000C948B000C948B0014
:100040000C9496020C948B000C9406030C94E00222
:100050000C948B000C948B000C948B000C948B00F4
:100060000C948B000C948B0000000008000201002F
:100070000003040700000000000000000000000072
:1000800023002600290000000000240027002A0089
:1000900000000000250028002B00040404040404D0
:1000A0000404020202020202030303030303010227
:1000B00004081020408001020408102001020408F6
:1000C0001020FC03DD0611241FBECFEFD8E0DEBFF9
:1000D000CDBF22E0A2E5B1E001C01D92AF35B2076D
:1000E000E1F711E0A0E0B1E0EAE6F2E102C005903C
:1000F0000D92A235B107D9F710E0C2E6D0E004C0F6
:100100002197FE010E943007C136D107C9F70E942E
:10011000E5040C9428090C9400003FB7F8948091F2
:100120009B0190919C01A0919D01B0919E0126B5EB
:10013000A89B05C02F3F19F00196A11DB11D3FBF1F
:10014000BA2FA92F982F8827BC01CD01620F711DEE
:10015000811D911D42E0660F771F881F991F4A95E8
:10016000D1F70895AF92BF92CF92DF92EF92FF92B4
:100170000F931F93CF93DF936C017B018B01040FCF
:10018000151FEB015E01AE18BF08C017D10759F06B
:100190006991D601ED91FC910190F081E02DC601AD
:1001A0000995892B79F7C501DF91CF911F910F91A7
:1001B000FF90EF90DF90CF90BF90AF900895FC013B
:1001C000538D448D252F30E0842F90E0821B930BBC
:1001D000541710F0CF96089501970895FC01918D62
:1001E000828D981761F0A28DAE0FBF2FB11D5D9665
:1001F0008C91928D9F5F9F73928F90E008958FEF07
:100200009FEF0895FC01918D828D981731F0828DBA
:10021000E80FF11D858D90E008958FEF9FEF089511
:10022000FC01918D228D892F90E0805C9F4F821B75
:1002300091098F73992708958FE991E00E94100129
:1002400021E0892B09F420E0822F089580E090E0DE
:10025000892B29F00E941C0181110C940000089543
:10026000FC01A48DA80FB92FB11DA35ABF4F2C912B
:10027000848D90E001968F739927848FA689B78922
:100280002C93A089B1898C91837080648C93938D19
:10029000848D981306C00288F389E02D80818F7DBC
:1002A00080830895EF92FF920F931F93CF93DF9374
:1002B000EC0181E0888F9B8D8C8D98131AC0E889A2
:1002C000F989808185FF15C09FB7F894EE89FF8971
:1002D0006083E889F98980818370806480839FBF0F
:1002E00081E090E0DF91CF911F910F91FF90EF900F
:1002F0000895F62E0B8D10E00F5F1F4F0F7311271F
:10030000E02E8C8D8E110CC00FB607FCFACFE88959
:10031000F989808185FFF5CFCE010E943001F1CFB0
:10032000EB8DEC0FFD2FF11DE35AFF4FF0829FB7CD
:10033000F8940B8FEA89FB8980818062CFCFCF93BD
:10034000DF93EC01888D8823B9F0AA89BB89E889FD
:10035000F9898C9185FD03C0808186FD0DC00FB6A3
:1003600007FCF7CF8C9185FFF2CF808185FFEDCF21
:10037000CE010E943001E9CFDF91CF910895209105
:100380009401309195012817390771F490919201E9
:1003900080919301981741F0E0919201F0E0EE5ABC
:1003A000FE4F808190E008958FEF9FEF08950895AC
:1003B000EF92FF920F931F93CF93DF93DC015C9634
:1003C000ED90FC905D97E114F10479F481E090E008
:1003D00013969C938E93129790E080E0DF91CF91DB
:1003E0001F910F91FF90EF9008955196ED91FC9120
:1003F000529750968C915097982F90950FB75E9684
:100400002C915E97122F127021FD6095F894208137
:10041000112319F1282B2083E7012197F1F728E018
:10042000462F50E0308160FF1AC0382B3083E7013F
:100430002197F1F7BA0175956795215089F7112336
:1004400081F08081892380830FBF5C968D919C9180
:100450000197F1F781E090E0C1CF2923DCCF392368
:10046000E5CF9081892BEFCF2091940130919501B8
:100470002817390761F4809193012091920190E04F
:10048000805C9F4F821B91098F739927089590E09C
:1004900080E0089520919401309195012817390743
:1004A000B9F49091920180919301981789F0E091AD
:1004B0009201F0E0EE5AFE4F80812091920130E0EF
:1004C0002F5F3F4F2F7333272093920190E00895C1
:1004D0008FEF9FEF089590E080E008950F931F93B2
:1004E000CF93DF93EC0188819981009759F02A819D
:1004F0003B812617370730F081E0DF91CF911F91C4
:100500000F9108958B016F5F7F4F0E945B080097EA
:1005100059F0998388831B830A832C813D81232B87
:1005200059F7FC011082E8CF80E0E7CF1F920F92CD
:100530000FB60F9211242F933F938F939F93AF93F6
:10054000BF938091970190919801A0919901B091EA
:100550009A013091960123E0230F2D3758F501962B
:10056000A11DB11D2093960180939701909398014E
:10057000A0939901B0939A0180919B0190919C0165
:10058000A0919D01B0919E010196A11DB11D809386
:100590009B0190939C01A0939D01B0939E01BF91FC
:1005A000AF919F918F913F912F910F900FBE0F9020
:1005B0001F90189526E8230F0296A11DB11DD2CFDA
:1005C0001F920F920FB60F9211242F933F934F93C8
:1005D0005F936F937F938F939F93AF93BF93EF93AB
:1005E000FF938FE991E00E943001FF91EF91BF915D
:1005F000AF919F918F917F916F915F914F913F91BB
:100600002F910F900FBE0F901F9018951F920F9271
:100610000FB60F9211242F938F939F93EF93FF9315
:10062000E091AF01F091B0018081E091B501F091CE
:10063000B60182FD1BC090818091B8018F5F8F73DE
:100640002091B901821741F0E091B801F0E0E15644
:10065000FE4F958F8093B801FF91EF919F918F91FD
:100660002F910F900FBE0F901F9018958081F4CF9F
:100670001F920F920FB60F9211242F933F934F9317
:100680005F936F937F938F939F93AF93BF93EF93FA
:10069000FF93E0919401F0919501309749F0A68580
:1006A000B7858585968D91FF14C09C918923A1F40F
:1006B000FF91EF91BF91AF919F918F917F916F913A
:1006C0005F914F913F912F910F900FBE0F901F9010
:1006D00018959C91892361F7A389B4899C91858998
:1006E000809589238C93868997890197F1F7608D8E
:1006F000718DA685B785558538E020E0CB0101973F
:10070000F1F7822F90E095958795282F4C914523FE
:1007100009F02068315091F7868D81FD20958091F8
:10072000930190E001968F739927309192013817C9
:1007300099F0A0919301B0E0AE5ABE4F2C938093F4
:100740009301828D938D0197F1F7A389B4898C91E0
:100750009589892B8C93ACCF868D8160868FF1CF64
:1007600090E0FC01E859FF4F2491FC01E255FF4F56
:100770003491FC01E656FF4FE491EE23C9F02223A9
:1007800039F0233001F1A8F4213019F1223029F198
:10079000F0E0EE0FFF1FE057FF4FA591B4918FB728
:1007A000F894EC91611126C030953E233C938FBFA5
:1007B00008952730A9F02830C9F0243049F78091F6
:1007C00080008F7D03C0809180008F7780938000B0
:1007D000DFCF84B58F7784BDDBCF84B58F7DFBCF32
:1007E0008091B0008F778093B000D2CF8091B0001D
:1007F0008F7DF9CF3E2BDACF0F931F93CF93DF93EB
:100800001092A2011092A10188EE93E0A0E0B0E066
:100810008093A3019093A401A093A501B093A60196
:100820002AE031E03093A00120939F0125EC30E0D5
:100830003093AC012093AB0124EC30E03093AE0157
:100840002093AD0120EC30E03093B0012093AF0154
:1008500021EC30E03093B2012093B10122EC30E082
:100860003093B4012093B30126EC30E03093B6010D
:100870002093B5011092B8011092B9011092BA01FB
:100880001092BB0110923F0210923E0280934002F0
:1008900090934102A0934202B09343028CE191E015
:1008A00090933D0280933C021092530210925202A8
:1008B0001092550210925402109257021092560252
:1008C000109259021092580260915A026E7F6D7F09
:1008D00060935A026695617081E068278FEF0E94ED
:1008E000B0034DEA51E0FA01649189E991E0FC011D
:1008F0002491222399F030E0220F331FF901EA57A7
:10090000FF4FA591B491F901E057FF4F2591349124
:100910002FB7F8943C91632B6C932FBFFA0144914D
:1009200040934C02FC018491E82FF0E0EE0FFF1F92
:10093000E057FF4F8591949190934E0280934D0222
:100940000AEB10E0F8012491C6EAD0E0FE018491A0
:100950008823C9F090E0880F991FFC01EA57FF4FE8
:10096000A591B491FC01E057FF4F459154913FB7D9
:10097000F8949C91822F809598239C93FA01908102
:10098000892380833FBF80915A0281FD04C061E0CA
:100990008CE00E94B0038CE080934802F80104913F
:1009A00000934902FE01C491EC2FF0E0EE0FFF1F0F
:1009B000E458FF4F8591949190934B0280934A02A3
:1009C000DF91CF911F910F910895CF93DF93CDB712
:1009D000DEB72C970FB6F894DEBF0FBECDBF78946C
:1009E00084B5826084BD84B5816084BD85B5826034
:1009F00085BD85B5816085BD80916E0081608093E5
:100A00006E0010928100809181008260809381004D
:100A1000809181008160809381008091800081605D
:100A2000809380008091B10084608093B1008091B8
:100A3000B00081608093B00080917A0084608093E0
:100A40007A0080917A00826080937A0080917A00A7
:100A5000816080937A0080917A00806880937A0028
:100A60001092C10010925702109256021092550235
:100A70001092540210925302109252028DE991E0AA
:100A8000909359028093580290914802963108F051
:100A900047C02DEB30E030935302209352022BE9F4
:100AA00031E030935502209354022CE231E0309330
:100AB0005702209356022091680084E0983048F055
:100AC00031E09E3008F430E081E001C0880F3A95B3
:100AD000EAF7822B809368002DE630E0983050F0E2
:100AE0002BE630E09E3030F02CE630E0963110F00E
:100AF00030E020E03093500220934F02292F30E065
:100B0000983008F02CC181E001C0880F9A95EAF76F
:100B10008093510280915802909159020197F1F708
:100B20008091560290915702892B49F1E0919401EE
:100B3000F091950122E0EC33F20709F1309739F09A
:100B4000A389B4899C918589809589238C93809110
:100B50005A028E7F80935A02109293011092920152
:100B60008CE392E09093950180939401E0914F0281
:100B7000F0915002808190915102892B8083E09105
:100B8000AF01F091B00182E08083E091AB01F09180
:100B9000AC011082E091AD01F091AE018FEC808349
:100BA0001092B701E091B301F091B40186E0808327
:100BB000E091B101F091B201808180618083E09188
:100BC000B101F091B201808188608083E091B10130
:100BD000F091B201808180688083E091B101F09151
:100BE000B20180818F7D808390E0E92E90E0F92E24
:100BF00018861F821A8619861C861B8668E170E09B
:100C0000CE0107960E946E022F8138858111B4C0F3
:100C10002115310519F0C9010E94D20718861F82DB
:100C20001C861B861A8619864B855C856F817885A4
:100C30008CE392E00E94B20042E050E063E471E095
:100C40008CE392E00E94B2001A8219821C821B82FD
:100C50001E821D826AE070E0CE0101960E946E0243
:100C600029813A81811192C02115310519F0C901FC
:100C70000E94D2071A8219821E821D821C821B8248
:100C8000AF80B884A114B10409F48AC00B851C8517
:100C900001151105B9F08D819E81080F191FB8014A
:100CA000CE0101960E946E02882309F479C0298141
:100CB0003A818D819E81B501820F931F0E94210987
:100CC0001E830D834D815E8169817A818FE991E078
:100CD0000E94B20042E050E063E471E08FE991E0ED
:100CE0000E94B20089819A81009711F00E94D20778
:100CF0000E948D002B013C0180ED882E87E0982E0C
:100D0000A12CB12C0E948D006419750986099709E0
:100D1000683E734081059105A8F381E0881A910827
:100D2000A108B10828EE420E23E0521E611C711C7E
:100D300081149104A104B10429F78F81988500974B
:100D400011F00E94D207E114F10409F451CF0E947E
:100D50001C01882309F44CCF0E94000049CF9E302B
:100D600040F42850310981E001C0880F2A95EAF744
:100D7000CFCE2E503109F7CF88E190E09C878B874A
:100D80006AE271E0C9010E9421094ECF8AE090E039
:100D90009E838D8366E471E0C9010E94210970CFB2
:100DA00089819A81009711F00E94D2071A821982D4
:100DB0001E821D821C821B8285CF8CE191E0909364
:100DC0003D0280933C0280919401909195018C5357
:100DD000924071F4E0914F02F09150029081809125
:100DE000510280958923808310929501109294017D
:100DF00008952F923F924F925F926F927F928F92BF
:100E00009F92AF92BF92CF92DF92EF92FF920F9399
:100E10001F93CF93DF93CDB7DEB7CA1BDB0B0FB6A3
:100E2000F894DEBF0FBECDBF09942A883988488860
:100E30005F846E847D848C849B84AA84B984C884F6
:100E4000DF80EE80FD800C811B81AA81B981CE0FED
:100E5000D11D0FB6F894DEBF0FBECDBFED010895D2
:100E6000EE0FFF1F0590F491E02D09940F931F934F
:100E7000CF93DF938230910510F482E090E0E0910F
:100E80005D02F0915E0230E020E0B0E0A0E030973B
:100E900099F42115310509F44AC0281B390B243077
:100EA0003105D8F58A819B816115710589F1FB01B6
:100EB00093838283FE0111C040815181028113819D
:100EC00048175907E0F04817590799F4109761F04F
:100ED00012960C93129713961C933296CF01DF91C2
:100EE000CF911F910F91089500935D0210935E02C0
:100EF000F4CF2115310551F04217530738F0A901FD
:100F0000DB019A01BD01DF01F801C1CFEF01F9CF8B
:100F100090935E0280935D02CDCFFE01E20FF31F3E
:100F2000819391932250310939832883D7CF20911F
:100F30005B0230915C02232B41F42091020130913D
:100F4000030130935C0220935B02209100013091F9
:100F500001012115310541F42DB73EB7409104013F
:100F600050910501241B350BE0915B02F0915C026E
:100F7000E217F307A0F42E1B3F0B2817390778F070
:100F8000AC014E5F5F4F2417350748F04E0F5F1FCF
:100F900050935C0240935B02819391939FCFF0E06A
:100FA000E0E09CCFCF93DF930097E9F0FC0132970C
:100FB00013821282A0915D02B0915E02ED0130E0D9
:100FC00020E01097A1F420813181820F931F20919E
:100FD0005B0230915C022817390709F061C0F09379
:100FE0005C02E0935B02DF91CF910895EA01CE1796
:100FF000DF07E8F54A815B819E0141155105B1F794
:10100000E901FB83EA8349915991C40FD51FEC177D
:10101000FD0761F4808191810296840F951FE9019B
:1010200099838883828193819B838A83F0E0E0E0C7
:1010300012968D919C9113970097B9F52D913C9143
:101040001197CD010296820F931F20915B02309180
:101050005C022817390739F6309751F510925E0275
:1010600010925D02B0935C02A0935B02BCCFD3836D
:10107000C28340815181840F951FC817D90761F43D
:101080004E5F5F4F88819981480F591F518340837C
:101090008A819B81938382832115310509F0B0CF2A
:1010A000F0935E02E0935D029ECFFD01DC01C0CFB4
:1010B00013821282D7CFB0E0A0E0E1E6F8E00C9412
:1010C000FB068C01009751F4CB010E9436078C017E
:1010D000C801CDB7DEB7E0E10C941707FC01E60FBD
:1010E000F71F9C0122503109E217F30708F49DC055
:1010F000D901CD91DC911197C617D70798F0C5306B
:10110000D10530F3CE0104978617970708F3C61B65
:10111000D70B2297C193D1936D937C93CF010E94FB
:10112000D207D6CF5B01AC1ABD0A4C018C0E9D1EB6
:10113000A0915D02B0915E02512C412CF12CE12C6A
:10114000109731F580915B0290915C0288159905AA
:1011500009F05CC04616570608F058C0809100019F
:1011600090910101009741F48DB79EB74091040121
:1011700050910501841B950BE817F90708F055C03D
:10118000F0935C02E0935B02F90171836083A0CF6E
:101190008D919C91119712966C90129713967C905A
:1011A0001397A815B90559F56C0142E0C40ED11C7E
:1011B000CA14DB0420F1AC014A195B09DA0112966A
:1011C000159780F06282738251834083D9016D93B9
:1011D0007C93E114F10471F0D7011396FC93EE9324
:1011E000129776CF22968C0F9D1FF90191838083F1
:1011F000F301EFCFF0935E02E0935D0269CF4816F2
:10120000590608F42C017D01D3019ACFCB010E942D
:1012100036077C01009749F0AE01B8010E94180919
:10122000C8010E94D207870153CF10E000E050CFE1
:10123000FB01DC0102C001900D9241505040D8F7F3
:101240000895FB01DC0101900D920020E1F7089563
:1012500010E0C2E6D0E004C0FE010E9430072196F3
:0A126000C336D107C9F7F894FFCF99
:10126A0000005F028000000000005201B200DF00AF
:10127A009F011001EE00020100000000D801B20037
:10128A006B02D70134024A02BF01486F6C612064C5
:10129A006573646520656C207472616E736D697321
:1012AA006F72000D0A00456E7669616E646F3A20AE
:0212BA00000032
:00000001FF
