:020000040000FA
:100000000C9463000C948B000C948B000C94800374
:100010000C9480030C9480030C948B000C948B0044
:100020000C948B000C948B000C948B000C948B0024
:100030000C948B000C948B000C948B000C948B0014
:100040000C94DE020C948B000C944E030C94280349
:100050000C948B000C948B000C948B000C948B00F4
:100060000C948B000C948B0000000008000201002F
:100070000003040700000000000000000000000072
:1000800023002600290000000000240027002A0089
:1000900000000000250028002B00040404040404D0
:1000A0000404020202020202030303030303010227
:1000B00004081020408001020408102001020408F6
:1000C00010204404400711241FBECFEFD8E0DEBF4C
:1000D000CDBF22E0A0E5B1E001C01D92AD35B20771
:1000E000E1F711E0A0E0B1E0E0E3F3E102C0059048
:1000F0000D92A035B107D9F710E0C2E6D0E004C0F8
:100100002197FE010E949307C136D107C9F70E94CB
:100110002D050C948B090C9400003FB7F894809146
:10012000950190919601A0919701B091980126B503
:10013000A89B05C02F3F19F00196A11DB11D3FBF1F
:10014000BA2FA92F982F8827BC01CD01620F711DEE
:10015000811D911D42E0660F771F881F991F4A95E8
:10016000D1F70895AF92BF92CF92DF92EF92FF92B4
:100170000F931F93CF93DF936C017B018B01040FCF
:10018000151FEB015E01AE18BF08C017D10759F06B
:100190006991D601ED91FC910190F081E02DC601AD
:1001A0000995892B79F7C501DF91CF911F910F91A7
:1001B000FF90EF90DF90CF90BF90AF900895FC013B
:1001C000538D448D252F30E0842F90E0821B930BBC
:1001D000541710F0CF96089501970895FC01918D62
:1001E000828D981761F0A28DAE0FBF2FB11D5D9665
:1001F0008C91928D9F5F9F73928F90E008958FEF07
:100200009FEF0895FC01918D828D981731F0828DBA
:10021000E80FF11D858D90E008958FEF9FEF089511
:10022000FC01918D228D892F90E0805C9F4F821B75
:1002300091098F73992708958DE991E00E9410012B
:1002400021E0892B09F420E0822F089580E090E0DE
:10025000892B29F00E941C0181110C940000089543
:10026000FC01A48DA80FB92FB11DA35ABF4F2C912B
:10027000848D90E001968F739927848FA689B78922
:100280002C93A089B1898C91837080648C93938D19
:10029000848D981306C00288F389E02D80818F7DBC
:1002A00080830895EF92FF920F931F93CF93DF9374
:1002B000EC0181E0888F9B8D8C8D98131AC0E889A2
:1002C000F989808185FF15C09FB7F894EE89FF8971
:1002D0006083E889F98980818370806480839FBF0F
:1002E00081E090E0DF91CF911F910F91FF90EF900F
:1002F0000895F62E0B8D10E00F5F1F4F0F7311271F
:10030000E02E8C8D8E110CC00FB607FCFACFE88959
:10031000F989808185FFF5CFCE010E943001F1CFB0
:10032000EB8DEC0FFD2FF11DE35AFF4FF0829FB7CD
:10033000F8940B8FEA89FB8980818062CFCFCF93BD
:10034000DF93EC01888D8823B9F0AA89BB89E889FD
:10035000F9898C9185FD03C0808186FD0DC00FB6A3
:1003600007FCF7CF8C9185FFF2CF808185FFEDCF21
:10037000CE010E943001E9CFDF91CF910895209105
:100380009201309193012817390771F490919001EF
:1003900080919101981741F0E0919001F0E0E05BCD
:1003A000FE4F808190E008958FEF9FEF08950895AC
:1003B000EF92FF920F931F93CF93DF93DC015C9634
:1003C000ED90FC905D97E114F10479F481E090E008
:1003D00013969C938E93129790E080E0DF91CF91DB
:1003E0001F910F91FF90EF9008955196ED91FC9120
:1003F000529750968C915097982F90950FB75E9684
:100400002C915E97122F127021FD6095F894208137
:10041000112319F1282B2083E7012197F1F728E018
:10042000462F50E0308160FF1AC0382B3083E7013F
:100430002197F1F7BA0175956795215089F7112336
:1004400081F08081892380830FBF5C968D919C9180
:100450000197F1F781E090E0C1CF2923DCCF392368
:10046000E5CF9081892BEFCF2091920130919301BC
:100470002817390761F4809191012091900190E053
:10048000805C9F4F821B91098F739927089590E09C
:1004900080E0089520919201309193012817390747
:1004A000B9F49091900180919101981789F0E091B1
:1004B0009001F0E0E05BFE4F80812091900130E000
:1004C0002F5F3F4F2F7333272093900190E00895C3
:1004D0008FEF9FEF08952FB7F89480919901909135
:1004E0009A01A0919B01B0919C012FBF8093420281
:1004F00090934302A0934402B09345028AE392E0B2
:100500000E944A0297FF26C02FB7F8948091990164
:1005100090919A01A0919B01B0919C012FBF4091B5
:100520004202509143026091440270914502841B43
:10053000950BA60BB70B40913E0250913F02609184
:1005400040027091410284179507A607B707B0F2E1
:100550008FEF9FEF089590E080E0089542E050E033
:100560006AE271E08DE991E00C94B2000F931F9361
:10057000CF93DF93EC0188819981009759F02A810C
:100580003B812617370730F081E0DF91CF911F9133
:100590000F9108958B016F5F7F4F0E94BE080097F7
:1005A00059F0998388831B830A832C813D81232BF7
:1005B00059F7FC011082E8CF80E0E7CF1F920F923D
:1005C0000FB60F9211242F933F938F939F93AF9366
:1005D000BF938091990190919A01A0919B01B09154
:1005E0009C013091940123E0230F2D3758F501969B
:1005F000A11DB11D209394018093990190939A01BC
:10060000A0939B01B0939C018091950190919601DC
:10061000A0919701B09198010196A11DB11D809301
:10062000950190939601A0939701B0939801BF9183
:10063000AF919F918F913F912F910F900FBE0F908F
:100640001F90189526E8230F0296A11DB11DD2CF49
:100650001F920F920FB60F9211242F933F934F9337
:100660005F936F937F938F939F93AF93BF93EF931A
:10067000FF938DE991E00E943001FF91EF91BF91CE
:10068000AF919F918F917F916F915F914F913F912A
:100690002F910F900FBE0F901F9018951F920F92E1
:1006A0000FB60F9211242F938F939F93EF93FF9385
:1006B000E091AD01F091AE018081E091B301F09144
:1006C000B40182FD1BC090818091B6018F5F8F7352
:1006D0002091B701821741F0E091B601F0E0E356B6
:1006E000FE4F958F8093B601FF91EF919F918F916F
:1006F0002F910F900FBE0F901F9018958081F4CF0F
:100700001F920F920FB60F9211242F933F934F9386
:100710005F936F937F938F939F93AF93BF93EF9369
:10072000FF93E0919201F0919301309749F0A685F3
:10073000B7858585968D91FF14C09C918923A1F47E
:10074000FF91EF91BF91AF919F918F917F916F91A9
:100750005F914F913F912F910F900FBE0F901F907F
:1007600018959C91892361F7A389B4899C91858907
:10077000809589238C93868997890197F1F7608DFD
:10078000718DA685B785558538E020E0CB010197AE
:10079000F1F7822F90E095958795282F4C9145236E
:1007A00009F02068315091F7868D81FD2095809168
:1007B000910190E001968F7399273091900138173D
:1007C00099F0A0919101B0E0A05BBE4F2C93809373
:1007D0009101828D938D0197F1F7A389B4898C9152
:1007E0009589892B8C93ACCF868D8160868FF1CFD4
:1007F00090E0FC01E859FF4F2491FC01E255FF4FC6
:100800003491FC01E656FF4FE491EE23C9F0222318
:1008100039F0233001F1A8F4213019F1223029F107
:10082000F0E0EE0FFF1FE057FF4FA591B4918FB797
:10083000F894EC91611126C030953E233C938FBF14
:1008400008952730A9F02830C9F0243049F7809165
:1008500080008F7D03C0809180008F77809380001F
:10086000DFCF84B58F7784BDDBCF84B58F7DFBCFA1
:100870008091B0008F778093B000D2CF8091B0008C
:100880008F7DF9CF3E2BDACF0F931F93CF93DF935A
:100890001092A00110929F0188EE93E0A0E0B0E0DA
:1008A0008093A1019093A201A093A301B093A4010E
:1008B0002AE031E030939E0120939D0125EC30E049
:1008C0003093AA012093A90124EC30E03093AC01CD
:1008D0002093AB0120EC30E03093AE012093AD01CA
:1008E00021EC30E03093B0012093AF0122EC30E0F6
:1008F0003093B2012093B10126EC30E03093B40183
:100900002093B3011092B6011092B7011092B80172
:100910001092B90110923D0210923C0280933E0267
:1009200090933F02A0934002B09341028CE191E08A
:1009300090933B0280933A0210925102109250021F
:1009400010925302109252021092550210925402C9
:100950001092570210925602609158026E7F6D7F7E
:10096000609358026695617081E068278CE00E9470
:10097000F8034AEB50E0FA01649186EA90E0FC014A
:100980002491222399F030E0220F331FF901EA5716
:10099000FF4FA591B491F901E057FF4F2591349194
:1009A0002FB7F8943C91632B6C932FBFFA014491BD
:1009B00040934A02FC018491E82FF0E0EE0FFF1F04
:1009C000E057FF4F8591949190934C0280934B0296
:1009D0000DEA11E0F8012491C9E9D1E0FE0184910A
:1009E0008823C9F090E0880F991FFC01EA57FF4F58
:1009F000A591B491FC01E057FF4F459154913FB749
:100A0000F8949C91822F809598239C93FA01908171
:100A1000892380833FBF8091580281FD04C061E03B
:100A20008FEF0E94F8038FEF80934602F801049144
:100A300000934702FE01C491EC2FF0E0EE0FFF1F80
:100A4000E458FF4F85919491909349028093480216
:100A5000DF91CF911F910F910895CF93DF93CDB781
:100A6000DEB72C970FB6F894DEBF0FBECDBF7894DB
:100A700084B5826084BD84B5816084BD85B58260A3
:100A800085BD85B5816085BD80916E008160809354
:100A90006E001092810080918100826080938100BD
:100AA00080918100816080938100809180008160CD
:100AB000809380008091B10084608093B100809128
:100AC000B00081608093B00080917A008460809350
:100AD0007A0080917A00826080937A0080917A0017
:100AE000816080937A0080917A00806880937A0098
:100AF0001092C100109255021092540210925302AB
:100B00001092520210925102109250028DE991E01F
:100B1000909357028093560290914602963108F0C6
:100B200047C02DEB30E030935102209350022BE967
:100B300031E030935302209352022CE231E03093A3
:100B40005502209354022091680084E0983048F0C8
:100B500031E09E3008F430E081E001C0880F3A9522
:100B6000EAF7822B809368002DE630E0983050F051
:100B70002BE630E09E3030F02CE630E0963110F07D
:100B800030E020E030934E0220934D02292F30E0D8
:100B9000983008F0C4C081E001C0880F9A95EAF748
:100BA00080934F0280915602909157020197F1F77E
:100BB0008091540290915502892B49F1E091920164
:100BC000F091930122E0EA33F20709F1309739F00E
:100BD000A389B4899C918589809589238C93809180
:100BE00058028E7F809358021092910110929001CA
:100BF0008AE392E09093930180939201E0914D02F9
:100C0000F0914E02808190914F02892B8083E09178
:100C1000AD01F091AE0182E08083E091A901F091F5
:100C2000AA011082E091AB01F091AC018FEC8083BE
:100C30001092B501E091B101F091B20186E080839C
:100C4000E091AF01F091B001808180618083E091FB
:100C5000AF01F091B001808188608083E091AF01A5
:100C6000F091B001808180688083E091AF01F091C4
:100C7000B00180818F7D80834EE050E06DE271E0B5
:100C80008DE991E00E94B2000E94AE0290E0E92E50
:100C900090E0F92E8AE392E00E943402892B09F455
:100CA000A7C018861F821A8619861C861B8670E0CC
:100CB00060E0CE0107960E94B6022F81388581112F
:100CC0003BC02115310519F0C9010E94350818866D
:100CD0001F821C861B861A8619860E946B0297FD4E
:100CE00033C08A30910581F189831A820B851C8576
:100CF0000F5F1F4FB801CE0107960E94B6028823EE
:100D000061F32F8138858B859C85BE016F5F7F4F96
:100D1000820F931F0E9484091C870B87DECF9E30B1
:100D200040F42850310981E001C0880F2A95EAF784
:100D300037CF2E503109F7CF1C861B866CE271E04D
:100D4000C9010E948409C9CF1A8219821C821B82A0
:100D50001E821D8262E170E0CE0101960E94B60201
:100D600029813A81811175C02115310519F0C90118
:100D70000E9435081A8219821E821D821C821B82E3
:100D8000AF80B884A114B10409F46DC00B851C8533
:100D900001151105B9F08D819E81080F191FB80149
:100DA000CE0101960E94B602882309F45CC0298115
:100DB0003A818D819E81B501820F931F0E94840923
:100DC0001E830D834D815E8169817A818DE991E079
:100DD0000E94B2000E94AE0289819A81009711F0B0
:100DE0000E9435088F819885009711F00E94350880
:100DF0000E948D002B013C0188EE882E83E0982E06
:100E0000A12CB12C0E948D006419750986099709DF
:100E1000683E734081059105A8F381E0881A910826
:100E2000A108B10828EE420E23E0521E611C711C7D
:100E300081149104A104B10429F7E114F10409F427
:100E400029CF0E941C01882309F424CF0E940000AE
:100E500021CF82E190E09E838D836CE371E0C90134
:100E60000E9484098DCF89819A81009711F00E9498
:100E700035081A8219821E821D821C821B82A2CF13
:100E80008CE191E090933B0280933A028091920131
:100E9000909193018A53924071F4E0914D02F09148
:100EA0004E02908180914F02809589238083109219
:100EB00093011092920108952F923F924F925F9268
:100EC0006F927F928F929F92AF92BF92CF92DF925A
:100ED000EF92FF920F931F93CF93DF93CDB7DEB7BF
:100EE000CA1BDB0B0FB6F894DEBF0FBECDBF099453
:100EF0002A88398848885F846E847D848C849B84AA
:100F0000AA84B984C884DF80EE80FD800C811B81B7
:100F1000AA81B981CE0FD11D0FB6F894DEBF0FBEE6
:100F2000CDBFED010895EE0FFF1F0590F491E02D68
:100F300009940F931F93CF93DF938230910510F4A0
:100F400082E090E0E0915B02F0915C0230E020E012
:100F5000B0E0A0E0309799F42115310509F44AC0BA
:100F6000281B390B24303105D8F58A819B81611506
:100F7000710589F1FB0193838283FE0111C04081D9
:100F800051810281138148175907E0F0481759072A
:100F900099F4109761F012960C93129713961C9384
:100FA0003296CF01DF91CF911F910F910895009359
:100FB0005B0210935C02F4CF2115310551F042170A
:100FC000530738F0A901DB019A01BD01DF01F801E7
:100FD000C1CFEF01F9CF90935C0280935B02CDCF3C
:100FE000FE01E20FF31F819391932250310939835F
:100FF0002883D7CF2091590230915A02232B41F4F4
:10100000209102013091030130935A02209359023A
:1010100020910001309101012115310541F42DB7D6
:101020003EB74091040150910501241B350BE0911E
:101030005902F0915A02E217F307A0F42E1B3F0B5E
:101040002817390778F0AC014E5F5F4F241735073A
:1010500048F04E0F5F1F50935A02409359028193FC
:1010600091939FCFF0E0E0E09CCFCF93DF93009788
:10107000E9F0FC01329713821282A0915B02B091D9
:101080005C02ED0130E020E01097A1F42081318175
:10109000820F931F2091590230915A022817390765
:1010A00009F061C0F0935A02E0935902DF91CF91A9
:1010B0000895EA01CE17DF07E8F54A815B819E01BA
:1010C00041155105B1F7E901FB83EA834991599133
:1010D000C40FD51FEC17FD0761F480819181029642
:1010E000840F951FE90199838883828193819B8373
:1010F0008A83F0E0E0E012968D919C91139700971F
:10110000B9F52D913C911197CD010296820F931F55
:101110002091590230915A022817390739F6309731
:1011200051F510925C0210925B02B0935A02A093A8
:101130005902BCCFD383C28340815181840F951F54
:10114000C817D90761F44E5F5F4F88819981480FB6
:10115000591F518340838A819B8193838283211508
:10116000310509F0B0CFF0935C02E0935B029ECFB3
:10117000FD01DC01C0CF13821282D7CFB0E0A0E026
:10118000E4ECF8E00C945E078C01009751F4CB017D
:101190000E9499078C01C801CDB7DEB7E0E10C943D
:1011A0007A07FC01E60FF71F9C0122503109E21774
:1011B000F30708F49DC0D901CD91DC911197C617B2
:1011C000D70798F0C530D10530F3CE0104978617C4
:1011D000970708F3C61BD70B2297C193D1936D9342
:1011E0007C93CF010E943508D6CF5B01AC1ABD0AB3
:1011F0004C018C0E9D1EA0915B02B0915C02512CA3
:10120000412CF12CE12C109731F5809159029091ED
:101210005A028815990509F05CC04616570608F071
:1012200058C08091000190910101009741F48DB761
:101230009EB74091040150910501841B950BE8175E
:10124000F90708F055C0F0935A02E0935902F901EA
:1012500071836083A0CF8D919C91119712966C90B1
:10126000129713967C901397A815B90559F56C0140
:1012700042E0C40ED11CCA14DB0420F1AC014A19AF
:101280005B09DA011296159780F0628273825183AE
:101290004083D9016D937C93E114F10471F0D7017F
:1012A0001396FC93EE93129776CF22968C0F9D1F88
:1012B000F90191838083F301EFCFF0935C02E09317
:1012C0005B0269CF4816590608F42C017D01D30151
:1012D0009ACFCB010E9499077C01009749F0AE019B
:1012E000B8010E947B09C8010E943508870153CFCD
:1012F00010E000E050CFFB01DC0102C001900D9234
:1013000041505040D8F70895FB01DC0101900D9247
:101310000020E1F7089510E0C2E6D0E004C0FE012D
:101320000E9493072196C336D107C9F7F894FFCFDF
:1013300000005D028000000000005201B200DF00EA
:101340009F011001EE00020100000000D801B20070
:10135000AB02D70134024A02BF010D0A0052656395
:101360006570746F72206C6973746F004D656E7375
:10137000616A6520726563696269646F3A20000082
:107E0000112484B714BE81FFF0D085E080938100F7
:107E100082E08093C00088E18093C10086E0809377
:107E2000C20080E18093C4008EE0C9D0259A86E02C
:107E300020E33CEF91E0309385002093840096BBD3
:107E4000B09BFECF1D9AA8958150A9F7CC24DD24C4
:107E500088248394B5E0AB2EA1E19A2EF3E0BF2EE7
:107E6000A2D0813461F49FD0082FAFD0023811F036
:107E7000013811F484E001C083E08DD089C08234E0
:107E800011F484E103C0853419F485E0A6D080C0E4
:107E9000853579F488D0E82EFF2485D0082F10E0AE
:107EA000102F00270E291F29000F111F8ED06801E7
:107EB0006FC0863521F484E090D080E0DECF843638
:107EC00009F040C070D06FD0082F6DD080E0C81688
:107ED00080E7D80618F4F601B7BEE895C0E0D1E017
:107EE00062D089930C17E1F7F0E0CF16F0E7DF06D8
:107EF00018F0F601B7BEE89568D007B600FCFDCFD4
:107F0000A601A0E0B1E02C9130E011968C91119780
:107F100090E0982F8827822B932B1296FA010C0160
:107F200087BEE89511244E5F5F4FF1E0A038BF0790
:107F300051F7F601A7BEE89507B600FCFDCF97BE46
:107F4000E89526C08437B1F42ED02DD0F82E2BD052
:107F50003CD0F601EF2C8F010F5F1F4F84911BD097
:107F6000EA94F801C1F70894C11CD11CFA94CF0C13
:107F7000D11C0EC0853739F428D08EE10CD085E9AC
:107F80000AD08FE07ACF813511F488E018D01DD067
:107F900080E101D065CF982F8091C00085FFFCCF94
:107FA0009093C60008958091C00087FFFCCF809118
:107FB000C00084FD01C0A8958091C6000895E0E648
:107FC000F0E098E1908380830895EDDF803219F02E
:107FD00088E0F5DFFFCF84E1DECF1F93182FE3DFCA
:107FE0001150E9F7F2DF1F91089580E0E8DFEE27F6
:047FF000FF270994CA
:027FFE00040479
:00000001FF
